:020000040800F2
:10000000100900202908000881080008BF0C00081A
:10001000810800088108000881080008000000002D
:10002000000000000000000000000000810800083F
:10003000810800080000000081080008810800080D
:10004000810800088108000881080008810800086C
:10005000810800088108000881080008810800085C
:10006000810800088108000881080008810800084C
:10007000810800088108000881080008810800083C
:10008000810800088108000881080008810800082C
:10009000810800088108000881080008810800081C
:1000A000810800088108000881080008810800080C
:1000B00081080008810800088108000881080008FC
:1000C00081080008810800088108000881080008EC
:1000D00081080008951100088108000881080008BF
:1000E00081080008810800088108000881080008CC
:1000F00081080008810800088108000881080008BC
:1001000081080008810800088108000881080008AB
:10011000810800088108000881080008810800089B
:10012000810800088108000881080008810800088B
:10013000810800088108000881080008810800087B
:10014000810800088108000881080008810800086B
:10015000810800088108000881080008810800085B
:10016000810800088108000881080008810800084B
:10017000810800088108000881080008810800083B
:10018000810800088108000880B483B000AF0F2305
:100190007B607B685A1C7A60244AD35CDAB2244BB9
:1001A0001A707B685A1C7A60204AD35CDAB2204B02
:1001B0005A707B685A1C7A601C4AD35CDAB21C4BBA
:1001C0009A707B685A1C7A60184AD35CDAB2184B72
:1001D000DA707B685A1C7A60144AD35CDAB2144B2A
:1001E0001A717B685A1C7A60104AD35CDAB2104BE1
:1001F0005A717B685A1C7A600C4AD35CDAB20C4B99
:100200009A717B685A1C7A60084AD35CDAB2084B50
:10021000DA717B685A1C7A60044AD35CDAB2044B08
:100220001A720C37BD465DF8047B70478C000020C5
:100230000001002080B584B000AF786039600523EC
:10024000BB600023FB607B68DE221A707B68013391
:10025000AF221A707B6802333D221A707B68033329
:100260002F221A7007F10803786819463A6800F0DF
:1002700017F8F8607B680433FA68D2B21A70FB682A
:10028000013B7A681344ED221A70FB68DBB2786890
:10029000194600F085FE7B6818461037BD4680BDC4
:1002A00080B588B000AFF860B9607A60BB681B6841
:1002B000FB610023BB6100233B61786800F086FA94
:1002C00078617B69002B3CD032E0786800F048FA16
:1002D00078617B695B781A46FB6913440133FB61E3
:1002E000BB681B68591CBA6811601A46FB68134446
:1002F0007A6912781A700023BB610FE0BB681B6833
:10030000591CBA6811601A46FB6813447969BA69C6
:100310000A4492781A70BB690133BB617B695B78D0
:100320001A46BB699A42E9DC786800F04FFA7861B6
:10033000074B1B68002B04DD7B695B780133F02BD6
:10034000C3DDFB69013318462037BD4680BD00BFC1
:100350000C01002080B58AB000AF786039600023BE
:100360007B6200233B620023FB610023BB617B684F
:100370001B8A9BB27B627B6A23F440537B623B689F
:10038000DB881A467B6A13437B627B6A9AB27B687E
:100390001A827B689B899BB27B627B6A23F4B05391
:1003A00023F00C037B623B689A883B681B891343EC
:1003B0009AB23B685B8913439BB21A467B6A13432C
:1003C0007B627B6A9AB27B689A817B689B8A9BB2CC
:1003D0007B627B6A23F440737B623B689B891A468D
:1003E0007B6A13437B627B6A9AB27B689A8207F1CD
:1003F0000803184600F09EFA7B68314A934203D006
:100400007B68304A934202D17B693B6201E03B69E1
:100410003B627B689B899BB29BB21BB2002B0CDAC0
:100420003A6A13469B0013449A001A443B681B68BF
:100430005B00B2FBF3F3FB610BE03A6A13469B00EF
:1004400013449A001A443B681B689B00B2FBF3F309
:10045000FB61FB691C4AA2FB03235B091B017B6256
:100460007B6A1B09642202FB03F3FA69D31ABB619E
:100470007B689B899BB29BB21BB2002B0CDABB69D9
:10048000DB003233104AA2FB03235B0903F00703AE
:100490007A6A13437B620BE0BB691B0132330A4A61
:1004A000A2FB03235B0903F00F037A6A13437B6209
:1004B0007B6A9AB27B681A812837BD4680BD00BF2F
:1004C00000100140001401401F85EB5180B483B03F
:1004D00000AF78600B46FB70FB78002B08D07B6880
:1004E0009B899BB243F400539AB27B689A8107E0E0
:1004F0007B689B899BB223F400539AB27B689A81F4
:100500000C37BD465DF8047B704700BF80B483B0F4
:1005100000AF78600B467B807B88C3F308039AB2F8
:100520007B689A800C37BD465DF8047B704700BF3E
:1005300080B487B000AF78600B467B8013467B7039
:1005400000233B610023FB600023BB6000237B6131
:100550007B687B617B88DBB25B09DBB23B617B88BC
:1005600003F01F03FB60FB68012202FA03F3BB6088
:100570003B69012B03D17B690C337B6109E03B694B
:10058000022B03D17B6910337B6102E07B6914335A
:100590007B617B78002B06D07B697A691168BA6829
:1005A0000A431A6006E07B697A691168BA68D24327
:1005B0000A401A601C37BD465DF8047B704700BFD7
:1005C00080B485B000AF78600B467B800023FB735E
:1005D0007B681B889AB27B8813409BB2002B02D0A9
:1005E0000123FB7301E00023FB73FB7B18461437E8
:1005F000BD465DF8047B704780B487B000AF78607B
:100600000B467B800023FB6000237B610023BB60E3
:100610000023FB747B88DBB25B09DBB2BB607B88A9
:1006200003F01F037B617B69012202FA03F37B6104
:10063000BB68012B07D17B689B899BB21A467B69FB
:1006400013407B6111E0BB68022B07D17B681B8ADA
:100650009BB21A467B6913407B6106E07B689B8AEC
:100660009BB21A467B6913407B617B881B0A9BB255
:10067000FB60FB68012202FA03F3FB607B681B88C6
:100680009BB21A46FB681340FB607B69002B05D0C8
:10069000FB68002B02D00123FB7401E00023FB74F4
:1006A000FB7C18461C37BD465DF8047B704700BFD5
:1006B00080B586B000AFF8607B600B46FB721346D6
:1006C000BB72244B1B68632B01DD00233DE0BB7A2A
:1006D0000A2B01D9002338E01F4B1A681D4B1B68F9
:1006E00013441E4A82FB03125111DA178A1A64213D
:1006F00001FB02F29B1A7B617A6913465B0013448B
:100700009B001A46FB681344FA7A1A707A691346FA
:100710005B0013449B001A46FB681344BA7A5A7074
:100720007A6913465B0013449B001A46FB68134426
:100730009A1CBB7A104679681A4600F03BFD054BBF
:100740001B680133034A1360012318461837BD465E
:1007500080BD00BF0C010020FC0000201F85EB5174
:1007600080B485B000AF7860154B1B68002B01DCAE
:1007700000231FE0134B1B681A4613465B0013440B
:100780009B001A467B681344FB600E4B1B685A1C87
:100790000D4B83FB02135911D317CB1A642101FBB4
:1007A00003F3D31A074A1360054B1B68013B044A45
:1007B0001360FB6818461437BD465DF8047B70472C
:1007C0000C010020FC0000201F85EB5180B483B099
:1007D00000AF78600A4B1B68002B01DC002309E0A6
:1007E000084B1B681A4613465B0013449B001A46CD
:1007F0007B68134418460C37BD465DF8047B704790
:100800000C010020FC00002080B400AF044B00224B
:100810001A60044B00221A60BD465DF8047B7047E5
:100820000C010020FC00002080B582B000AF0F4B0F
:100830007B600F4B3B6007E03B681A1D3A607A68AB
:10084000111D796012681A603B680A4A9342F3D31B
:1008500009480A494FF000028842B8BF40F8042B0B
:10086000FADB00F011F80837BD4680BDF812000829
:1008700000000020140000201400002010010020BF
:1008800080B400AFFEE700BF80B5ADF59A6D00AF54
:100890004FF4165000F07EFA07F5986300221A60B4
:1008A000043300221A60043300221A80023300232A
:1008B000C7F8CC34FFF7A8FF3B1D144A10685168F5
:1008C00003C312891A803B46114A11889278198015
:1008D0009A7007F110023B1D1046A1210A22FFF772
:1008E000E7FE07F110023B461046A2210322FFF764
:1008F000DFFE07F5986207F1100310461946FFF76F
:1009000099FC6FF07F4000F005F8E2E7E81200087C
:10091000F412000880B483B000AF786000BF7B6839
:100920005A1E7A60002BFAD10C37BD465DF8047B65
:10093000704700BF80B489B000AF78600023BB610E
:1009400000237B610023FB6102233B610023FB60EA
:100950000223BB60484B9B6803F00C03BB61BB697F
:10096000042B07D0082B09D0002B3FD17B68434ACA
:100970001A603FE07B68424A1A603BE03E4B5B688E
:1009800003F480039B0DFB603B4B5B6803F03F036C
:10099000BB60FB68002B0DD0394ABB68B2FBF3F299
:1009A000354B596847F6C0730B409B0903FB02F3B4
:1009B000FB610CE0314ABB68B2FBF3F22E4B596885
:1009C00047F6C0730B409B0903FB02F3FB612A4B04
:1009D0005B6803F440331B0C01335B003B61FA6935
:1009E0003B69B2FBF3F27B681A6003E07B68234A41
:1009F0001A6000BF204B9B6803F0F003BB61BB692A
:100A00001B09BB611F4ABB6913441B78DBB27B61C6
:100A10007B681A687B69DA407B685A60164B9B6872
:100A200003F4E053BB61BB699B0ABB61154ABB6918
:100A300013441B78DBB27B617B685A687B69DA40C0
:100A40007B689A600C4B9B6803F46043BB61BB6995
:100A50005B0BBB610B4ABB6913441B78DBB27B6148
:100A60007B685A687B69DA407B68DA602437BD4668
:100A70005DF8047B704700BF003802400024F4009A
:100A800040787D010000002080B483B000AF786022
:100A90000B46FB70FB78002B06D00949084B1A6BFC
:100AA0007B6813430B6306E00549054B1A6B7B68B3
:100AB000DB4313400B630C37BD465DF8047B704786
:100AC0000038024080B483B000AF78600B46FB7002
:100AD000FB78002B06D00949084B5A6C7B681343FE
:100AE0004B6406E00549054B5A6C7B68DB431340B9
:100AF0004B640C37BD465DF8047B704700380240FC
:100B000080B487B000AF7860396000237B61002338
:100B10003B610023FB6000237B6176E07B6901225F
:100B200002FA03F33B613B681A683B691340FB60C0
:100B3000FA683B699A4265D17B681A687B695B00F9
:100B4000194603238B40DB431A407B681A607B689D
:100B50001A683B681B7919467B695B0001FA03F34D
:100B60001A437B681A603B681B79012B03D03B68F2
:100B70001B79022B2ED17B689A687B695B00194632
:100B800003238B40DB431A407B689A607B689A683A
:100B90003B685B7919467B695B0001FA03F31A43F2
:100BA0007B689A607B685A687B699BB2194601230F
:100BB0008B40DB431A407B685A607B685B683A680D
:100BC000927911467A6992B201FA02F292B21A430C
:100BD0007B685A607B68DA687B699BB25B000321A3
:100BE00001FA03F3DB431A407B68DA607B68DA685A
:100BF0003B68DB7919467B695B0001FA03F31A4312
:100C00007B68DA607B6901337B617B690F2B85D957
:100C10001C37BD465DF8047B704700BF80B485B0CB
:100C200000AF78600B467B8013467B700023FB602F
:100C30000023BB607B787A8802F007029200934021
:100C4000FB607B88DB089BB218467B88DB089BB285
:100C50001A467B68083253F822207B8803F007038A
:100C60009B0019460F238B40DB4302EA03017B689C
:100C700000F1080243F822107B88DB089BB21A4679
:100C80007B68083253F82220FB681343BB607B88E3
:100C9000DB089BB21A467B680832B96843F8221019
:100CA0001437BD465DF8047B704700BFABBE01E062
:100CB00000207047002A00D010600120704706987D
:100CC0000188034A914202D1043006907047FEE742
:100CD000ABBE000080B485B000AF78600023FB732A
:100CE0000023BB730F237B737B68DB78002B38D02A
:100CF000264BDB68DB4303F4E0631B0AFB73FB7BDF
:100D0000C3F10403BB737A7BFB7B42FA03F37B736F
:100D10007B685B781A46BB7B02FA03F3FB737B6844
:100D20009A787B7B1340DAB2FB7B1343FB73FB7B2C
:100D30001B01FB73164A7B681B781344FA7B83F80C
:100D40000023134A7B681B785B09DBB218467B687B
:100D50001B7803F01F03012101FA03F342F820304E
:100D60000FE00B497B681B785B09DBB218467B6898
:100D70001B7803F01F0301229A4000F1200341F881
:100D800023201437BD465DF8047B704700ED00E07A
:100D900000E100E080B58AB000AF7860102001214A
:100DA000FFF790FE02200121FFF76EFEC0233B6299
:100DB000022387F82430022387F82530002387F8A0
:100DC0002630012387F8273007F120031C481946F5
:100DD000FFF796FE1A4806210722FFF71FFF184863
:100DE00007210722FFF71AFF7B683B610023BB82C4
:100DF0000023FB8200233B830023BB830C237B83E4
:100E000007F110030F481946FFF7A4FA0D4840F206
:100E100025510122FFF78CFB25233B7300237B73B5
:100E20000023BB730123FB7307F10C031846FFF784
:100E300051FF04480121FFF749FB2837BD4680BD1B
:100E4000000402400010014080B582B000AF0346AC
:100E50003960FB7100BF1A488021FFF7B1FB0346E0
:100E6000002BF8D03B68002B21D0FB797E2B08D0DB
:100E7000FB797D2B05D0FB79112B02D0FB79132B4D
:100E800015D10F487D21FFF741FB00BF0C488021A1
:100E9000FFF796FB0346002BF8D0FB7983F0200385
:100EA000DBB29BB206481946FFF730FB05E0FB7941
:100EB0009BB203481946FFF729FB0837BD4680BDA2
:100EC0000010014080B584B000AF78600B46FB7025
:100ED0000023BB7300237B73FB783B737E200021D0
:100EE000FFF7B2FF7B7B18460121FFF7ADFF3B7B8D
:100EF00018460121FFF7A8FF7B681B7818460121DF
:100F0000FFF7A2FF7B6801331B7818460121FFF72A
:100F10009BFF7B681A78BB7B1344BB737B680133F0
:100F20001A78BB7B1344BB730223FB7311E0FB7B7A
:100F30007A6813441B7818460121FFF785FFFB7B75
:100F40007A6813441A78BB7B1344BB73FB7B013371
:100F5000FB73FA7BFB789A42E9D3BB7BDB43BB7321
:100F6000BB7B18460121FFF76FFF1037BD4680BDE0
:100F700080B400AF094B1B780133DAB2074B1A700B
:100F8000064B1B78002B02D1044B01221A70034B35
:100F90001B781846BD465DF8047B7047160000209C
:100FA0002DE9F04186B000AF7860F9706946884657
:100FB000F97801F10E06711E3961314608464FF08D
:100FC0000001CD0045EA5075C400314608464FF097
:100FD0000001CB0043EA5073C20033460733DB08FD
:100FE000DB00ADEB030D6B460033FB60FB681022AA
:100FF0001A70FFF7BDFF03461A46FB685A70FB687C
:1010000000229A70FB681322DA70FB68A2221A7120
:10101000FB6800225A71FB6840229A71FB688B22A0
:10102000DA71FB681D221A72FB6811225A72FB6882
:10103000FF229A72FB68FE22DA72FB6800221A73A2
:10104000FB6800225A730E23FB750AE0FB7DFA7DD4
:101050000E3A79680A441178FA68D154FB7D01335D
:10106000FB75FA7DFB780E339A42EFDBFA68F3B238
:1010700010461946FFF726FFC5461837BD46BDE89E
:10108000F08100BF80B582B000AF0E4B5B78DBB261
:101090009BB21B029AB20B4B9B78DBB29BB2134400
:1010A0009BB20433FB80074BDB78DBB2902B05D17E
:1010B000FB88DBB203481946FFF772FF0837BD46CD
:1010C00080BD00BF8C00002080B582B000AF2C4BEB
:1010D0009B889BB2FB712B4B1B881A462A4B1B88A3
:1010E000013B9A423ED0294B1B78012B12D1254B54
:1010F0001B881A46FB7983F02003D9B2244B9954FC
:10110000204B1B8801339AB21E4B1A801F4B0022C2
:101110001A7012E0FB797D2B03D11C4B01221A704F
:101120000BE0184B1B881946194AFB795354154B91
:101130001B8801339AB2134B1A80124B1B88032B66
:101140001AD1134B5B78DBB29BB21B029AB2104BE5
:101150009B78DBB29BB213449BB204339AB20A4B26
:101160001A8009E0FFF78EFFFFF70EF8054B00220B
:101170001A80054BC8221A800837BD4680BD00BFC3
:101180000010014018000020100000201400002072
:101190008C00002080B500AF054840F22551FFF7D4
:1011A0002BFA0346002B01D0FFF78EFF80BD00BF56
:1011B00000100140844641EA000313F003036DD19F
:1011C000403A41D351F8043B40F8043B51F8043B0A
:1011D00040F8043B51F8043B40F8043B51F8043B11
:1011E00040F8043B51F8043B40F8043B51F8043B01
:1011F00040F8043B51F8043B40F8043B51F8043BF1
:1012000040F8043B51F8043B40F8043B51F8043BE0
:1012100040F8043B51F8043B40F8043B51F8043BD0
:1012200040F8043B51F8043B40F8043B51F8043BC0
:1012300040F8043B51F8043B40F8043B51F8043BB0
:1012400040F8043B403ABDD2303211D351F8043B50
:1012500040F8043B51F8043B40F8043B51F8043B90
:1012600040F8043B51F8043B40F8043B103AEDD2FF
:101270000C3205D351F8043B40F8043B043AF9D250
:10128000043208D0D2071CBF11F8013B00F8013B23
:1012900001D30B8803806046704700BF082A13D330
:1012A0008B078DD010F003038AD0C3F10403D21A48
:1012B000DB071CBF11F8013B00F8013B80D331F87C
:1012C000023B20F8023B7BE7043AD9D3013A11F8FC
:1012D000013B00F8013BF9D20B7803704B78437067
:1012E0008B78837060467047010203040506070887
:0812F00009000000FFFEEF0001
:1012F80000000000010203040102030406070809B4
:04130800C800000019
:0400000508000000EF
:00000001FF
