:020000040800F2
:10000000D811002081090008D90900086F0E0008E6
:10001000D9090008D9090008D90900080000000022
:10002000000000000000000000000000D9090008E6
:10003000D909000800000000D9090008D909000802
:10004000D9090008D9090008D9090008D909000808
:10005000D9090008D9090008D9090008D9090008F8
:10006000D9090008D9090008D9090008D9090008E8
:10007000D9090008D9090008D9090008D9090008D8
:10008000D9090008D9090008D9090008D9090008C8
:10009000D9090008D9090008D9090008D9090008B8
:1000A000D9090008D9090008D9090008D9090008A8
:1000B00025040008D9090008D9090008D909000851
:1000C000D9090008D9090008D9090008D909000888
:1000D000D909000885150008D9090008D9090008C0
:1000E000D9090008D9090008D9090008D909000868
:1000F000D9090008D9090008D9090008D909000858
:10010000D9090008D9090008D9090008D909000847
:10011000D9090008D9090008D9090008D909000837
:10012000D9090008D9090008D9090008D909000827
:10013000D9090008D9090008D9090008D909000817
:10014000D9090008D9090008D9090008D909000807
:10015000D9090008D9090008D9090008D9090008F7
:10016000D9090008D9090008D9090008D9090008E7
:10017000D9090008D9090008D9090008D9090008D7
:10018000D9090008D909000880B584B000AF7860AB
:1001900039600523BB600023FB60386800F0BCFBBE
:1001A0000346002B01D1002327E07B68DE221A7072
:1001B0007B680133AF221A707B6802333D221A70CC
:1001C0007B6803332F221A7007F1080378681946F9
:1001D0003A6800F019F8F8607B680433FA68D2B224
:1001E0001A70FB68013B7A681344ED221A70054BC4
:1001F0001B680133034A13607B6818461037BD46FD
:1002000080BD00BF2005002080B588B000AFF86039
:10021000B9607A60BB681B68FB610023BB61002387
:100220003B61786800F078FB78613BE07B695B7844
:100230001A46FB6913440133E92B00DD39E0786885
:1002400000F034FB78617B695B781A46FB691344E4
:100250000133FB61BB681B68591CBA6811601A4600
:10026000FB6813447A6912781A700023BB610FE0AF
:10027000BB681B68591CBA6811601A46FB681344B6
:100280007969BA690A4492781A70BB690133BB6113
:100290007B695B781A46BB699A42E9DC786800F0B2
:1002A0003BFB78617B69002B03D0054B1B68002B5F
:1002B000BCDCFB69013318462037BD4680BD00BF5A
:1002C0002405002080B584B000AF0F23FB6000231D
:1002D000BB6000237B6000233B602E4AFB68134415
:1002E0001B78DBB21B02FA6801322A498A5CD2B25F
:1002F000134343F62F52934201D0002346E0FB689C
:100300000233244AD35CDBB21B02FA680332214970
:100310008A5CD2B213434DF6AF62934201D0002300
:1003200034E0FB6804331B4AD35CDBB2BB60FB6880
:100330000533FB6019E0174AFB6813441B78DAB2F7
:10034000FB68DBB20133DBB21046194600F0FAFD60
:1003500038603B68002B01D1002317E0FA683B6846
:100360001344FB60FB680133FB60BB685A1EFB68EB
:100370009A42E0DCBB685A1EFB681344054AD35C12
:10038000DBB2ED2B01D0002300E00123184610372B
:10039000BD4680BD8C04002080B500AF00F00AF897
:1003A00000F028F8024B4FF4FA721A6080BD00BFCB
:1003B000FC04002080B584B000AF0120012100F0D2
:1003C00029FC42F66C43BB800023FB806423BB60A6
:1003D0000023BB810023BB733B1D4FF080401946B7
:1003E00000F0DAFD4FF08040012100F03FFE1037B1
:1003F000BD4680BD80B582B000AF1C233B71002399
:100400007B710123BB710123FB713B1D184600F07A
:1004100039FD4FF080400121012200F047FE0837EE
:10042000BD4680BD80B5BCB000AF4FF0804001211B
:1004300000F060FE0346002B26D04FF080400121E3
:1004400000F082FE12484FF4805100F0ADFC114BD9
:100450001B68642202FB03F20F4B1B689A420EDBFF
:100460003B46F0221846002101F036F93B4618467B
:100470000A49FFF789FE074B01221A6004E0054B89
:100480001B680133034A1360F037BD4680BD00BFCF
:10049000000C024000000020FC0400202805002081
:1004A00080B58AB000AF7860396000237B6200239A
:1004B0003B620023FB610023BB617B681B8A9BB20C
:1004C0007B627B6A23F440537B623B68DB881A467D
:1004D0007B6A13437B627B6A9AB27B681A827B6871
:1004E0009B899BB27B627B6A23F4B05323F00C039D
:1004F0007B623B689A883B681B8913439AB23B68CE
:100500005B8913439BB21A467B6A13437B627B6A07
:100510009AB27B689A817B689B8A9BB27B627B6A7A
:1005200023F440737B623B689B891A467B6A1343C2
:100530007B627B6A9AB27B689A8207F1080318464D
:1005400000F0A0FA7B68314A934203D07B68304ABE
:10055000934202D17B693B6201E03B693B627B686D
:100560009B899BB29BB21BB2002B0CDA3A6A1346F2
:100570009B0013449A001A443B681B685B00B2FB63
:10058000F3F3FB610BE03A6A13469B0013449A00B5
:100590001A443B681B689B00B2FBF3F3FB61FB69E9
:1005A0001C4AA2FB03235B091B017B627B6A1B09BC
:1005B000642202FB03F3FA69D31ABB617B689B894F
:1005C0009BB29BB21BB2002B0CDABB69DB0032334F
:1005D000104AA2FB03235B0903F007037A6A134363
:1005E0007B620BE0BB691B0132330A4AA2FB032387
:1005F0005B0903F00F037A6A13437B627B6A9AB24A
:100600007B681A812837BD4680BD00BF00100140BD
:10061000001401401F85EB5180B483B000AF7860B7
:100620000B46FB70FB78002B08D07B689B899BB244
:1006300043F400539AB27B689A8107E07B689B89F8
:100640009BB223F400539AB27B689A810C37BD4663
:100650005DF8047B704700BF80B483B000AF786062
:100660000B467B807B88C3F308039AB27B689A8031
:100670000C37BD465DF8047B704700BF80B487B07F
:1006800000AF78600B467B8013467B7000233B6194
:100690000023FB600023BB6000237B617B687B61E0
:1006A0007B88DBB25B09DBB23B617B8803F01F0315
:1006B000FB60FB68012202FA03F3BB603B69012B7C
:1006C00003D17B690C337B6109E03B69022B03D1C9
:1006D0007B6910337B6102E07B6914337B617B783B
:1006E000002B06D07B697A691168BA680A431A60E0
:1006F00006E07B697A691168BA68D2430A401A60D9
:100700001C37BD465DF8047B704700BF80B485B0E0
:1007100000AF78600B467B800023FB737B681B88EF
:100720009AB27B8813409BB2002B02D00123FB734B
:1007300001E00023FB73FB7B18461437BD465DF8D0
:10074000047B704780B487B000AF78600B467B8035
:100750000023FB6000237B610023BB600023FB744C
:100760007B88DBB25B09DBB2BB607B8803F01F03D5
:100770007B617B69012202FA03F37B61BB68012B79
:1007800007D17B689B899BB21A467B6913407B61CA
:1007900011E0BB68022B07D17B681B8A9BB21A460B
:1007A0007B6913407B6106E07B689B8A9BB21A469B
:1007B0007B6913407B617B881B0A9BB2FB60FB68F3
:1007C000012202FA03F3FB607B681B889BB21A4686
:1007D000FB681340FB607B69002B05D0FB68002B96
:1007E00002D00123FB7401E00023FB74FB7C18465C
:1007F0001C37BD465DF8047B704700BF80B586B0EE
:1008000000AFF8607B600B46FB721346BB72244B53
:100810001B68632B01DD00233DE0BB7A0A2B01D965
:10082000002338E01F4B1A681D4B1B6813441E4AF7
:1008300082FB03125111DA178A1A642101FB02F2BA
:100840009B1A7B617A6913465B0013449B001A462E
:10085000FB681344FA7A1A707A6913465B001344F2
:100860009B001A46FB681344BA7A5A707A69134699
:100870005B0013449B001A46FB6813449A1CBB7A26
:10088000104679681A4600F08DFE054B1B6801334F
:10089000034A1360012318461837BD4680BD00BFC8
:1008A00024050020000500201F85EB5180B485B091
:1008B00000AF7860154B1B68002B01DC00231FE0A4
:1008C000134B1B681A4613465B0013449B001A46E1
:1008D0007B681344FB600E4B1B685A1C0D4B83FB5B
:1008E00002135911D317CB1A642101FB03F3D31A56
:1008F000074A1360054B1B68013B044A1360FB6801
:1009000018461437BD465DF8047B70472405002067
:10091000000500201F85EB5180B483B000AF7860E4
:100920000A4B1B68002B01DC002309E0084B1B6805
:100930001A4613465B0013449B001A467B68134417
:1009400018460C37BD465DF8047B7047240500202F
:100950000005002080B400AF064B00221A60064B51
:1009600000221A60054B00221A60BD465DF8047B28
:10097000704700BF24050020000500201C05002052
:1009800080B582B000AF0F4B7B600F4B3B6007E040
:100990003B681A1D3A607A68111D796012681A6006
:1009A0003B680A4A9342F3D309480A494FF00002D0
:1009B0008842B8BF40F8042BFADB00F011F8083782
:1009C000BD4680BD841700080000002018000020EC
:1009D00018000020D809002080B400AFFEE700BF57
:1009E00080B588B000AF4FF4E13000F0BDFBFFF7F9
:1009F000D3FC07F1100300221A60043300221A60AE
:100A0000043300221A8002330023FB61104B0022C2
:100A10001A60FFF79FFF0F4A3B1D1068516803C320
:100A200012891A800C4A3B461188927819809A7074
:100A30000A4B4FF4FA721A603B1D094801210A2241
:100A4000FFF7DCFE42F2107000F00CF8F4E700BF94
:100A5000200500207417000880170008FC040020FF
:100A60002805002080B483B000AF786000BF7B68A9
:100A70005A1E7A60002BFAD10C37BD465DF8047B14
:100A8000704700BF80B489B000AF78600023BB61BD
:100A900000237B610023FB6102233B610023FB6099
:100AA0000223BB60484B9B6803F00C03BB61BB692E
:100AB000042B07D0082B09D0002B3FD17B68434A79
:100AC0001A603FE07B68424A1A603BE03E4B5B683D
:100AD00003F480039B0DFB603B4B5B6803F03F031B
:100AE000BB60FB68002B0DD0394ABB68B2FBF3F248
:100AF000354B596847F6C0730B409B0903FB02F363
:100B0000FB610CE0314ABB68B2FBF3F22E4B596833
:100B100047F6C0730B409B0903FB02F3FB612A4BB2
:100B20005B6803F440331B0C01335B003B61FA69E3
:100B30003B69B2FBF3F27B681A6003E07B68234AEF
:100B40001A6000BF204B9B6803F0F003BB61BB69D8
:100B50001B09BB611F4ABB6913441B78DBB27B6175
:100B60007B681A687B69DA407B685A60164B9B6821
:100B700003F4E053BB61BB699B0ABB61154ABB69C7
:100B800013441B78DBB27B617B685A687B69DA406F
:100B90007B689A600C4B9B6803F46043BB61BB6944
:100BA0005B0BBB610B4ABB6913441B78DBB27B61F7
:100BB0007B685A687B69DA407B68DA602437BD4617
:100BC0005DF8047B704700BF003802400024F40049
:100BD00040787D010400002080B483B000AF7860CD
:100BE0000B46FB70FB78002B06D00949084B1A6BAB
:100BF0007B6813430B6306E00549054B1A6B7B6862
:100C0000DB4313400B630C37BD465DF8047B704734
:100C10000038024080B483B000AF78600B46FB70B0
:100C2000FB78002B06D00949084B1A6C7B681343EC
:100C30000B6406E00549054B1A6C7B68DB431340E7
:100C40000B640C37BD465DF8047B704700380240EA
:100C500080B483B000AF78600B46FB70FB78002B4C
:100C600006D00949084B5A6C7B6813434B6406E075
:100C70000549054B5A6C7B68DB4313404B640C37CA
:100C8000BD465DF8047B70470038024080B487B0F1
:100C900000AF7860396000237B6100233B61002353
:100CA000FB6000237B6176E07B69012202FA03F39B
:100CB0003B613B681A683B691340FB60FA683B691B
:100CC0009A4265D17B681A687B695B0019460323E9
:100CD0008B40DB431A407B681A607B681A683B686C
:100CE0001B7919467B695B0001FA03F31A437B68A1
:100CF0001A603B681B79012B03D03B681B79022BE0
:100D00002ED17B689A687B695B00194603238B4070
:100D1000DB431A407B689A607B689A683B685B7922
:100D200019467B695B0001FA03F31A437B689A60FA
:100D30007B685A687B699BB2194601238B40DB4371
:100D40001A407B685A607B685B683A689279114602
:100D50007A6992B201FA02F292B21A437B685A603F
:100D60007B68DA687B699BB25B00032101FA03F3BD
:100D7000DB431A407B68DA607B68DA683B68DB79C2
:100D800019467B695B0001FA03F31A437B68DA605A
:100D90007B6901337B617B690F2B85D91C37BD468D
:100DA0005DF8047B704700BF80B483B000AF78600B
:100DB0000B467B807B685A697B885A407B685A6106
:100DC0000C37BD465DF8047B704700BF80B485B02A
:100DD00000AF78600B467B8013467B700023FB607E
:100DE0000023BB607B787A8802F007029200934070
:100DF000FB607B88DB089BB218467B88DB089BB2D4
:100E00001A467B68083253F822207B8803F00703D8
:100E10009B0019460F238B40DB4302EA03017B68EA
:100E200000F1080243F822107B88DB089BB21A46C7
:100E30007B68083253F82220FB681343BB607B8831
:100E4000DB089BB21A467B680832B96843F8221067
:100E50001437BD465DF8047B704700BFABBE01E0B0
:100E600000207047002A00D01060012070470698CB
:100E70000188034A914202D1043006907047FEE790
:100E8000ABBE000080B485B000AF78600023FB7378
:100E90000023BB730F237B737B68DB78002B38D078
:100EA000264BDB68DB4303F4E0631B0AFB73FB7B2D
:100EB000C3F10403BB737A7BFB7B42FA03F37B73BE
:100EC0007B685B781A46BB7B02FA03F3FB737B6893
:100ED0009A787B7B1340DAB2FB7B1343FB73FB7B7B
:100EE0001B01FB73164A7B681B781344FA7B83F85B
:100EF0000023134A7B681B785B09DBB218467B68CA
:100F00001B7803F01F03012101FA03F342F820309C
:100F10000FE00B497B681B785B09DBB218467B68E6
:100F20001B7803F01F0301229A4000F1200341F8CF
:100F300023201437BD465DF8047B704700ED00E0C8
:100F400000E100E080B582B000AF03460A46FB71C5
:100F50001346BB71FB790F4A52F82330002B01D1A5
:100F6000002313E0FB790B4A52F823305B68FA79CF
:100F7000084951F822201268D2B2B97908461146C0
:100F80009847FB79034A52F823301B681846083704
:100F9000BD4680BD1800002080B485B000AF7860E9
:100FA00039600023FB817B681B88FB817B68284AB2
:100FB000934213D07B68274A93420FD07B68B3F1EA
:100FC000804F0BD07B68244A934207D07B68234A2A
:100FD000934203D07B68224A934208D1FB8923F0D5
:100FE0007003FB813B685A88FB891343FB817B6854
:100FF0001C4A93420CD07B681B4A934208D0FB8961
:1010000023F44073FB813B681A89FB891343FB81FE
:101010007B68FA891A803B685A687B68DA623B68A9
:101020001A887B681A857B68094A934203D07B68DB
:10103000084A934204D13B689B7A9AB27B681A862D
:101040007B6801229A821437BD465DF8047B7047A5
:10105000000001400004014000040040000800407E
:10106000000C0040001000400014004080B483B029
:1010700000AF78600B46FB70FB78002B08D07B68D4
:101080001B889BB243F001039AB27B681A8007E089
:101090007B681B889BB223F001039AB27B681A809D
:1010A0000C37BD465DF8047B704700BF80B483B049
:1010B00000AF78600B467B8013467B707B78002BFB
:1010C00008D07B689B899AB27B8813439AB27B686D
:1010D0009A8109E07B689B899AB27B88DB439BB24B
:1010E00013409AB27B689A810C37BD465DF8047B49
:1010F000704700BF80B485B000AF78600B467B803E
:101100000023FB730023BB8100237B817B681B8A48
:101110009AB27B881340BB817B689B899AB27B889B
:1011200013407B81BB89002B05D07B89002B02D02B
:101130000123FB7301E00023FB73FB7B184614378C
:10114000BD465DF8047B704780B483B000AF786023
:101150000B467B807B88DB439AB27B681A820C3714
:10116000BD465DF8047B704780B58AB000AF7860FB
:1011700010200121FFF76CFD02200121FFF72CFD5B
:10118000C0233B62022387F82430022387F82530EE
:10119000002387F82630012387F8273007F1200342
:1011A0001C481946FFF772FD1A4806210722FFF76F
:1011B0000DFE184807210722FFF708FE7B683B61F8
:1011C0000023BB820023FB8200233B830023BB83DD
:1011D0000C237B8307F110030F481946FFF760F9D2
:1011E0000D4840F225510122FFF748FA25233B73B1
:1011F00000237B730023BB730123FB7307F10C03F4
:101200001846FFF73FFE04480121FFF705FA28378B
:10121000BD4680BD000402400010014080B582B090
:1012200000AF03463960FB7100BF1A488021FFF709
:101230006DFA0346002BF8D03B68002B21D0FB79D8
:101240007E2B08D0FB797D2B05D0FB79112B02D0AA
:10125000FB79132B15D10F487D21FFF7FDF900BF56
:101260000C488021FFF752FA0346002BF8D0FB7997
:1012700083F02003DBB29BB206481946FFF7ECF976
:1012800005E0FB799BB203481946FFF7E5F90837FB
:10129000BD4680BD0010014080B584B000AF7860CD
:1012A0000B46FB700023BB7300237B73FB783B73FF
:1012B0007E200021FFF7B2FF7B7B18460121FFF75C
:1012C000ADFF3B7B18460121FFF7A8FF7B681B7829
:1012D00018460121FFF7A2FF7B6801331B781846EF
:1012E0000121FFF79BFF7B681A78BB7B1344BB731C
:1012F0007B6801331A78BB7B1344BB730223FB73F7
:1013000011E0FB7B7A6813441B7818460121FFF734
:1013100085FFFB7B7A6813441A78BB7B1344BB734D
:10132000FB7B0133FB73FA7BFB789A42E9D3BB7BEF
:10133000DB43BB73BB7B18460121FFF76FFF103700
:10134000BD4680BD80B400AF094B1B780133DAB2D3
:10135000074B1A70064B1B78002B02D1044B01225D
:101360001A70034B1B781846BD465DF8047B704726
:10137000180400202DE9F04188B000AF7860F970C2
:101380006946884638490968B96138490968796108
:10139000374909683961F97801F10E06711EF96063
:1013A000314608464FF00001CD0045EA5075C400B3
:1013B000314608464FF00001CB0043EA5073C200AB
:1013C00033460733DB08DB00ADEB030D6B46003320
:1013D000BB60BB6810221A70FFF7B4FF03461A46C1
:1013E000BB685A70BB6800229A70BB681322DA701F
:1013F000BB68A2221A71BB6800225A71BB684022E6
:101400009A71BB688B22DA71BB681D221A72BB68A5
:1014100011225A72BB68FF229A72BB68FE22DA72EE
:10142000BB6800221A73BB6800225A730E23FB7735
:101430000AE0FB7FFA7F0E3A79680A441178BA68AD
:10144000D154FB7F0133FB77FA7FFB780E339A424E
:10145000EFDBBA68F3B210461946FFF71DFFC54629
:101460002037BD46BDE8F08100050020240500209E
:10147000FC04002080B582B000AF0E4B5B78DBB27D
:101480009BB21B029AB20B4B9B78DBB29BB213440C
:101490009BB20433FB80074BDB78DBB2902B05D18A
:1014A000FB88DBB203481946FFF764FF0837BD46E7
:1014B00080BD00BF8C04002080B582B000AF2C4BF3
:1014C0009B889BB2FB712B4B1B881A462A4B1B88AF
:1014D000013B9A423ED0294B1B78012B12D1254B60
:1014E0001B881A46FB7983F02003D9B2244B995408
:1014F000204B1B8801339AB21E4B1A801F4B0022CF
:101500001A7012E0FB797D2B03D11C4B01221A705B
:101510000BE0184B1B881946194AFB795354154B9D
:101520001B8801339AB2134B1A80124B1B88032B72
:101530001AD1134B5B78DBB29BB21B029AB2104BF1
:101540009B78DBB29BB213449BB204339AB20A4B32
:101550001A8009E0FFF78EFFFEF7B4FE054B00226C
:101560001A80054BC8221A800837BD4680BD00BFCF
:10157000001001401A040020140000201404002070
:101580008C04002080B500AF054840F22551FFF7DC
:10159000D9F80346002B01D0FFF78EFF80BD00BFB6
:1015A00000100140844641EA000313F003036DD1AB
:1015B000403A41D351F8043B40F8043B51F8043B16
:1015C00040F8043B51F8043B40F8043B51F8043B1D
:1015D00040F8043B51F8043B40F8043B51F8043B0D
:1015E00040F8043B51F8043B40F8043B51F8043BFD
:1015F00040F8043B51F8043B40F8043B51F8043BED
:1016000040F8043B51F8043B40F8043B51F8043BDC
:1016100040F8043B51F8043B40F8043B51F8043BCC
:1016200040F8043B51F8043B40F8043B51F8043BBC
:1016300040F8043B403ABDD2303211D351F8043B5C
:1016400040F8043B51F8043B40F8043B51F8043B9C
:1016500040F8043B51F8043B40F8043B103AEDD20B
:101660000C3205D351F8043B40F8043B043AF9D25C
:10167000043208D0D2071CBF11F8013B00F8013B2F
:1016800001D30B8803806046704700BF082A13D33C
:101690008B078DD010F003038AD0C3F10403D21A54
:1016A000DB071CBF11F8013B00F8013B80D331F888
:1016B000023B20F8023B7BE7043AD9D3013A11F808
:1016C000013B00F8013BF9D20B7803704B78437073
:1016D0008B7883706046704770B4840746D0541E80
:1016E000002A41D0CDB2034602E0621EE4B31446A4
:1016F00003F8015B9A07F8D1032C2ED9CDB245EA45
:1017000005250F2C45EA054519D903F11002264697
:10171000103E0F2E42F8105C42F80C5C42F8085C58
:1017200042F8045C02F11002F2D8A4F1100222F097
:101730000F0204F00F041032032C13440DD91E467F
:101740002246043A032A46F8045BFAD8221F22F004
:1017500003020432134404F003042CB1C9B21C4444
:1017600003F8011BA342FBD170BC7047144603462B
:10177000C2E700BF010203040506070809000000D4
:04178000FFFEEF0079
:101784000100000000000000010203040102030440
:0817940006070809C800000067
:0400000508000000EF
:00000001FF
