:020000040800F2
:10000000581A0020BD090008150A00081F0F000833
:10001000150A0008150A0008150A0008000000006B
:10002000000000000000000000000000150A0008A9
:10003000150A000800000000150A0008150A00084B
:10004000150A0008150A0008150A0008150A000814
:10005000150A0008150A0008150A0008150A000804
:10006000150A0008150A0008150A0008150A0008F4
:10007000150A0008150A0008150A0008150A0008E4
:10008000150A0008150A0008150A0008150A0008D4
:10009000150A0008150A0008150A0008150A0008C4
:1000A000150A0008150A0008150A0008150A0008B4
:1000B00041040008150A0008150A0008150A00087E
:1000C000150A0008150A0008150A0008150A000894
:1000D000150A000875160008150A0008150A000818
:1000E000150A0008150A0008150A0008150A000874
:1000F000150A0008150A0008150A0008150A000864
:10010000150A0008150A0008150A0008150A000853
:10011000150A0008150A0008150A0008150A000843
:10012000150A0008150A0008150A0008150A000833
:10013000150A0008150A0008150A0008150A000823
:10014000150A0008150A0008150A0008150A000813
:10015000150A0008150A0008150A0008150A000803
:10016000150A0008150A0008150A0008150A0008F3
:10017000150A0008150A0008150A0008150A0008E3
:10018000150A0008150A000880B584B000AF786031
:1001900039600523BB600023FB60386800F0DAFBA0
:1001A0000346002B01D100232DE07B68DE221A706C
:1001B0007B680133AF221A707B6802333D221A70CC
:1001C0007B6803332F221A7007F1080378681946F9
:1001D0003A6800F01FF8F8607B680433FA68D2B21E
:1001E0001A70FB68013B7A681344ED221A70FB68B1
:1001F000DBB27868194601F035F9054B1B6801330D
:10020000034A13607B6818461037BD4680BD00BFA7
:100210009C0D002080B588B000AFF860B9607A60AE
:10022000BB681B68FB610023BB6100233B617868EE
:1002300000F090FB78613BE07B695B781A46FB69D4
:1002400013440133E92B00DD39E0786800F04CFB02
:1002500078617B695B781A46FB6913440133FB6163
:10026000BB681B68591CBA6811601A46FB681344C6
:100270007A6912781A700023BB610FE0BB681B68B3
:10028000591CBA6811601A46FB6813447969BA6947
:100290000A4492781A70BB690133BB617B695B7851
:1002A0001A46BB699A42E9DC786800F053FB786132
:1002B0007B69002B03D0054B1B68002BBCDCFB6962
:1002C000013318462037BD4680BD00BFA00D002079
:1002D00080B584B000AF0F23FB6000237B60002358
:1002E000BB6000233B60324AFB6813441B78DBB2DF
:1002F0001B02FA6801322E498A5CD2B2134343F6DC
:100300002F52934201D000234DE0FB680233284A6C
:10031000D35CDBB21B02FA68033225498A5CD2B295
:1003200013434DF6AF62934201D000233BE0FB68DC
:1003300004331F4AD35CDBB27B60FB680533FB6090
:100340000023BB601EE01A4AFB6813441B78DAB234
:10035000FB680133FB60FB68DBB21046194600F016
:1003600069FE38603B68002B01D100231BE0FA686E
:100370003B681344FB60BA683B681344BB60BB68CE
:100380000133BB607B685A1EBB689A42DBDC7B682A
:100390005A1EFB681344064AD35CDBB2ED2B01D036
:1003A000002300E0012318461037BD4680BD00BF82
:1003B000140D002080B500AF00F00AF800F028F816
:1003C000024B4FF4FA721A6080BD00BF840D00200A
:1003D00080B584B000AF0120012100F073FC4EF61F
:1003E0006023BB800023FB808C23BB600023BB8188
:1003F0000023BB733B1D4FF08040194600F044FEC4
:100400004FF08040012100F0A9FE1037BD4680BDAD
:1004100080B582B000AF1C233B7100237B710123A8
:10042000BB710123FB713B1D184600F0A3FD4FF08B
:1004300080400121012200F0B1FE0837BD4680BD99
:1004400080B5BCB000AF4FF08040012100F0CAFE83
:100450000346002B26D04FF08040012100F0ECFE37
:1004600012484FF4805100F0F7FC114B1B686422D6
:1004700002FB03F20F4B1B689A420EDB3B46F02255
:100480001846002101F036FC3B4618460A49FFF7A2
:100490007BFE074B01221A6004E0054B1B68013309
:1004A000034A1360F037BD4680BD00BF000C024018
:1004B00000000020840D0020A40D002080B58AB02B
:1004C00000AF7860396000237B6200233B62002329
:1004D000FB610023BB617B681B8A9BB27B627B6AEA
:1004E00023F440537B623B68DB881A467B6A1343E4
:1004F0007B627B6A9AB27B681A827B689B899BB21B
:100500007B627B6A23F4B05323F00C037B623B686D
:100510009A883B681B8913439AB23B685B891343F3
:100520009BB21A467B6A13437B627B6A9AB27B68F2
:100530009A817B689B8A9BB27B627B6A23F44073BF
:100540007B623B689B891A467B6A13437B627B6AAA
:100550009AB27B689A8207F10803184600F0EAFA1B
:100560007B68314A934203D07B68304A934202D180
:100570007B693B6201E03B693B627B689B899BB284
:100580009BB21BB2002B0CDA3A6A13469B00134451
:100590009A001A443B681B685B00B2FBF3F3FB61F3
:1005A0000BE03A6A13469B0013449A001A443B68D6
:1005B0001B689B00B2FBF3F3FB61FB691C4AA2FBC7
:1005C00003235B091B017B627B6A1B09642202FB1C
:1005D00003F3FA69D31ABB617B689B899BB29BB218
:1005E0001BB2002B0CDABB69DB003233104AA2FBD2
:1005F00003235B0903F007037A6A13437B620BE072
:10060000BB691B0132330A4AA2FB03235B0903F0D7
:100610000F037A6A13437B627B6A9AB27B681A8102
:100620002837BD4680BD00BF0010014000140140C6
:100630001F85EB5180B483B000AF78600B46FB7030
:10064000FB78002B08D07B689B899BB243F4005356
:100650009AB27B689A8107E07B689B899BB223F4FE
:1006600000539AB27B689A810C37BD465DF8047BD3
:10067000704700BF80B483B000AF78600B467B80CA
:100680007B88C3F308039AB27B689A800C37BD4617
:100690005DF8047B704700BF80B483B000AF786022
:1006A0007B689B889BB2C3F308039BB218460C3748
:1006B000BD465DF8047B704780B487B000AF7860BA
:1006C0000B467B8013467B7000233B610023FB605D
:1006D0000023BB6000237B617B687B617B88DBB28E
:1006E0005B09DBB23B617B8803F01F03FB60FB68A7
:1006F000012202FA03F3BB603B69012B03D17B6942
:100700000C337B6109E03B69022B03D17B69103319
:100710007B6102E07B6914337B617B78002B06D020
:100720007B697A691168BA680A431A6006E07B69D6
:100730007A691168BA68D2430A401A601C37BD460C
:100740005DF8047B704700BF80B485B000AF78606F
:100750000B467B800023FB737B681B889AB27B88E7
:1007600013409BB2002B02D00123FB7301E0002356
:10077000FB73FB7B18461437BD465DF8047B70475E
:1007800080B487B000AF78600B467B800023FB60AD
:1007900000237B610023BB600023FB747B88DBB2FA
:1007A0005B09DBB2BB607B8803F01F037B617B6965
:1007B000012202FA03F37B61BB68012B07D17B683E
:1007C0009B899BB21A467B6913407B6111E0BB6831
:1007D000022B07D17B681B8A9BB21A467B691340A8
:1007E0007B6106E07B689B8A9BB21A467B6913405B
:1007F0007B617B881B0A9BB2FB60FB68012202FACB
:1008000003F3FB607B681B889BB21A46FB681340AE
:10081000FB607B69002B05D0FB68002B02D0012315
:10082000FB7401E00023FB74FB7C18461C37BD46BB
:100830005DF8047B704700BF80B586B000AFF860FC
:100840007B600B46FB721346BB72244B1B68632B09
:1008500001DD00233DE0BB7A0A2B01D9002338E0FB
:100860001F4B1A681D4B1B6813441E4A82FB031260
:100870005111DA178A1A642101FB02F29B1A7B617B
:100880007A6913465B0013449B001A46FB681344C5
:10089000FA7A1A707A6913465B0013449B001A4671
:1008A000FB681344BA7A5A707A6913465B001344A2
:1008B0009B001A46FB6813449A1CBB7A1046796861
:1008C0001A4601F07DF9054B1B680133034A13609A
:1008D000012318461837BD4680BD00BFA00D00207B
:1008E000880D00201F85EB5180B485B000AF786083
:1008F000154B1B68002B01DC00231FE0134B1B680A
:100900001A4613465B0013449B001A467B68134447
:10091000FB600E4B1B685A1C0D4B83FB02135911D5
:10092000D317CB1A642101FB03F3D31A074A1360D0
:10093000054B1B68013B044A1360FB6818461437DB
:10094000BD465DF8047B7047A00D0020880D002097
:100950001F85EB5180B483B000AF78600A4B1B68F1
:10096000002B01DC002309E0084B1B681A461346E4
:100970005B0013449B001A467B68134418460C37EF
:10098000BD465DF8047B7047A00D0020880D002057
:1009900080B400AF064B00221A60064B00221A609A
:1009A000054B00221A60BD465DF8047B704700BF0E
:1009B000A00D0020880D0020980D002080B582B089
:1009C00000AF0F4B7B600F4B3B6007E03B681A1D8D
:1009D0003A607A68111D796012681A603B680A4AA9
:1009E0009342F3D309480A494FF000028842B8BF46
:1009F00040F8042BFADB00F04FF80837BD4680BD05
:100A000018200008000000205C0800205C0800207E
:100A10005812002080B400AFFEE700BF80B500AFE1
:100A2000082000F037FE03461A46054B1A60044BB7
:100A30001B6803221A60024B1B68024A5A6080BD81
:100A40005C080020490A000880B485B000AF034666
:100A50000A46FB711346BB710023FB600023FB6059
:100A60000DE0FA79FB681344094AD35CDBB21946FE
:100A7000084AFB6842F82310FB680133FB60BA792F
:100A8000FB689A42EDDC1437BD465DF8047B704785
:100A9000140D0020580C002080B588B000AF4FF432
:100AA000E13000F0D9FBFFF785FCFFF7B7FFFFF758
:100AB0006FFF07F1100300221A60043300221A604E
:100AC000043300221A8002330023FB610C4B002206
:100AD0001A600C4A3B1D1068516803C312891A80C2
:100AE000094A3B461188927819809A703B1D074845
:100AF00001210A22FFF7A0FE054800F00BF8F5E7F8
:100B00009C0D00200820000814200008A40D0020DF
:100B1000A086010080B483B000AF786000BF7B681E
:100B20005A1E7A60002BFAD10C37BD465DF8047B63
:100B3000704700BF80B489B000AF78600023BB610C
:100B400000237B610023FB6102233B610023FB60E8
:100B50000223BB60484B9B6803F00C03BB61BB697D
:100B6000042B07D0082B09D0002B3FD17B68434AC8
:100B70001A603FE07B68424A1A603BE03E4B5B688C
:100B800003F480039B0DFB603B4B5B6803F03F036A
:100B9000BB60FB68002B0DD0394ABB68B2FBF3F297
:100BA000354B596847F6C0730B409B0903FB02F3B2
:100BB000FB610CE0314ABB68B2FBF3F22E4B596883
:100BC00047F6C0730B409B0903FB02F3FB612A4B02
:100BD0005B6803F440331B0C01335B003B61FA6933
:100BE0003B69B2FBF3F27B681A6003E07B68234A3F
:100BF0001A6000BF204B9B6803F0F003BB61BB6928
:100C00001B09BB611F4ABB6913441B78DBB27B61C4
:100C10007B681A687B69DA407B685A60164B9B6870
:100C200003F4E053BB61BB699B0ABB61154ABB6916
:100C300013441B78DBB27B617B685A687B69DA40BE
:100C40007B689A600C4B9B6803F46043BB61BB6993
:100C50005B0BBB610B4ABB6913441B78DBB27B6146
:100C60007B685A687B69DA407B68DA602437BD4666
:100C70005DF8047B704700BF003802400024F40098
:100C800040787D010400002080B483B000AF78601C
:100C90000B46FB70FB78002B06D00949084B1A6BFA
:100CA0007B6813430B6306E00549054B1A6B7B68B1
:100CB000DB4313400B630C37BD465DF8047B704784
:100CC0000038024080B483B000AF78600B46FB7000
:100CD000FB78002B06D00949084B1A6C7B6813433C
:100CE0000B6406E00549054B1A6C7B68DB43134037
:100CF0000B640C37BD465DF8047B7047003802403A
:100D000080B483B000AF78600B46FB70FB78002B9B
:100D100006D00949084B5A6C7B6813434B6406E0C4
:100D20000549054B5A6C7B68DB4313404B640C3719
:100D3000BD465DF8047B70470038024080B487B040
:100D400000AF7860396000237B6100233B610023A2
:100D5000FB6000237B6176E07B69012202FA03F3EA
:100D60003B613B681A683B691340FB60FA683B696A
:100D70009A4265D17B681A687B695B001946032338
:100D80008B40DB431A407B681A607B681A683B68BB
:100D90001B7919467B695B0001FA03F31A437B68F0
:100DA0001A603B681B79012B03D03B681B79022B2F
:100DB0002ED17B689A687B695B00194603238B40C0
:100DC000DB431A407B689A607B689A683B685B7972
:100DD00019467B695B0001FA03F31A437B689A604A
:100DE0007B685A687B699BB2194601238B40DB43C1
:100DF0001A407B685A607B685B683A689279114652
:100E00007A6992B201FA02F292B21A437B685A608E
:100E10007B68DA687B699BB25B00032101FA03F30C
:100E2000DB431A407B68DA607B68DA683B68DB7911
:100E300019467B695B0001FA03F31A437B68DA60A9
:100E40007B6901337B617B690F2B85D91C37BD46DC
:100E50005DF8047B704700BF80B483B000AF78605A
:100E60000B467B807B685A697B885A407B685A6155
:100E70000C37BD465DF8047B704700BF80B485B079
:100E800000AF78600B467B8013467B700023FB60CD
:100E90000023BB607B787A8802F0070292009340BF
:100EA000FB607B88DB089BB218467B88DB089BB223
:100EB0001A467B68083253F822207B8803F0070328
:100EC0009B0019460F238B40DB4302EA03017B683A
:100ED00000F1080243F822107B88DB089BB21A4617
:100EE0007B68083253F82220FB681343BB607B8881
:100EF000DB089BB21A467B680832B96843F82210B7
:100F00001437BD465DF8047B704700BFABBE01E0FF
:100F100000207047002A00D010600120704706981A
:100F20000188034A914202D1043006907047FEE7DF
:100F3000ABBE000080B485B000AF78600B4B1B687F
:100F4000002B02D1094B0A4A1A60084B1B68FB6050
:100F5000064B1A687B681344044A1360FB68184602
:100F60001437BD465DF8047B704700BF680C002055
:100F70005812002080B485B000AF78600023FB7366
:100F80000023BB730F237B737B68DB78002B38D087
:100F9000264BDB68DB4303F4E0631B0AFB73FB7B3C
:100FA000C3F10403BB737A7BFB7B42FA03F37B73CD
:100FB0007B685B781A46BB7B02FA03F3FB737B68A2
:100FC0009A787B7B1340DAB2FB7B1343FB73FB7B8A
:100FD0001B01FB73164A7B681B781344FA7B83F86A
:100FE0000023134A7B681B785B09DBB218467B68D9
:100FF0001B7803F01F03012101FA03F342F82030AC
:101000000FE00B497B681B785B09DBB218467B68F5
:101010001B7803F01F0301229A4000F1200341F8DE
:1010200023201437BD465DF8047B704700ED00E0D7
:1010300000E100E080B582B000AF03460A46FB71D4
:101040001346BB71FB790F4A52F82330002B01D1B4
:10105000002313E0FB790B4A52F823305B68FA79DE
:10106000084951F822201268D2B2B97908461146CF
:101070009847FB79034A52F823301B681846083713
:10108000BD4680BD5C08002080B485B000AF7860AC
:1010900039600023FB817B681B88FB817B68284AC1
:1010A000934213D07B68274A93420FD07B68B3F1F9
:1010B000804F0BD07B68244A934207D07B68234A39
:1010C000934203D07B68224A934208D1FB8923F0E4
:1010D0007003FB813B685A88FB891343FB817B6863
:1010E0001C4A93420CD07B681B4A934208D0FB8970
:1010F00023F44073FB813B681A89FB891343FB810E
:101100007B68FA891A803B685A687B68DA623B68B8
:101110001A887B681A857B68094A934203D07B68EA
:10112000084A934204D13B689B7A9AB27B681A863C
:101130007B6801229A821437BD465DF8047B7047B4
:10114000000001400004014000040040000800408D
:10115000000C0040001000400014004080B483B038
:1011600000AF78600B46FB70FB78002B08D07B68E3
:101170001B889BB243F001039AB27B681A8007E098
:101180007B681B889BB223F001039AB27B681A80AC
:101190000C37BD465DF8047B704700BF80B483B058
:1011A00000AF78600B467B8013467B707B78002B0A
:1011B00008D07B689B899AB27B8813439AB27B687C
:1011C0009A8109E07B689B899AB27B88DB439BB25A
:1011D00013409AB27B689A810C37BD465DF8047B58
:1011E000704700BF80B485B000AF78600B467B804D
:1011F0000023FB730023BB8100237B817B681B8A58
:101200009AB27B881340BB817B689B899AB27B88AA
:1012100013407B81BB89002B05D07B89002B02D03A
:101220000123FB7301E00023FB73FB7B184614379B
:10123000BD465DF8047B704780B483B000AF786032
:101240000B467B807B88DB439AB27B681A820C3723
:10125000BD465DF8047B704780B58AB000AF78600A
:1012600010200121FFF74CFD02200121FFF70CFDAA
:10127000C0233B62022387F82430022387F82530FD
:10128000002387F82630012387F8273007F1200351
:101290001C481946FFF752FD1A4806210722FFF79E
:1012A000EDFD184807210722FFF7E8FD7B683B6149
:1012B0000023BB820023FB8200233B830023BB83EC
:1012C0000C237B8307F110030F481946FFF7F6F84C
:1012D0000D4840F225510122FFF7EEF925233B731B
:1012E00000237B730023BB730123FB7307F10C0303
:1012F0001846FFF73FFE04480121FFF79BF9283706
:10130000BD4680BD000402400010014080B582B09F
:1013100000AF03463960FB7100BF1A488021FFF718
:1013200013FA0346002BF8D03B68002B21D0FB7941
:101330007E2B08D0FB797D2B05D0FB79112B02D0B9
:10134000FB79132B15D10F487D21FFF793F900BFCF
:101350000C488021FFF7F8F90346002BF8D0FB7901
:1013600083F02003DBB29BB206481946FFF782F9EF
:1013700005E0FB799BB203481946FFF77BF9083774
:10138000BD4680BD0010014080B584B000AF7860DC
:101390000B46FB700023BB7300237B73FB783B730E
:1013A0007E200021FFF7B2FF7B7B18460121FFF76B
:1013B000ADFF3B7B18460121FFF7A8FF7B681B7838
:1013C00018460121FFF7A2FF7B6801331B781846FE
:1013D0000121FFF79BFF7B681A78BB7B1344BB732B
:1013E0007B6801331A78BB7B1344BB730223FB7306
:1013F00011E0FB7B7A6813441B7818460121FFF744
:1014000085FFFB7B7A6813441A78BB7B1344BB735C
:10141000FB7B0133FB73FA7BFB789A42E9D3BB7BFE
:10142000DB43BB73BB7B18460121FFF76FFF10370F
:10143000BD4680BD80B400AF094B1B780133DAB2E2
:10144000074B1A70064B1B78002B02D1044B01226C
:101450001A70034B1B781846BD465DF8047B704735
:101460006C0C00202DE9F04188B000AF7860F97075
:101470006946884638490968B96138490968796117
:10148000374909683961F97801F10E06711EF96072
:10149000314608464FF00001CD0045EA5075C400C2
:1014A000314608464FF00001CB0043EA5073C200BA
:1014B00033460733DB08DB00ADEB030D6B4600332F
:1014C000BB60BB6810221A70FFF7B4FF03461A46D0
:1014D000BB685A70BB6800229A70BB681322DA702E
:1014E000BB68A2221A71BB6800225A71BB684022F5
:1014F0009A71BB688B22DA71BB681D221A72BB68B5
:1015000011225A72BB68FF229A72BB68FE22DA72FD
:10151000BB6800221A73BB6800225A730E23FB7744
:101520000AE0FB7FFA7F0E3A79680A441178BA68BC
:10153000D154FB7F0133FB77FA7FFB780E339A425D
:10154000EFDBBA68F3B210461946FFF71DFFC54638
:101550002037BD46BDE8F081880D0020A00D002099
:10156000840D002080B582B000AF0E4B5B78DBB2FB
:101570009BB21B029AB20B4B9B78DBB29BB213441B
:101580009BB20433FB80074BDB78DBB2902B05D199
:10159000FB88DBB203481946FFF764FF0837BD46F6
:1015A00080BD00BF140D002080B582B000AF2C4874
:1015B000FFF772F80346FB712A4B1B881A462A4B29
:1015C0001B88013B9A423ED0284B1B78012B12D13D
:1015D000244B1B881A46FB7983F02003D9B2244B95
:1015E0009954204B1B8801339AB21E4B1A801F4B13
:1015F00000221A7012E0FB797D2B03D11B4B0122D4
:101600001A700BE0174B1B881946194AFB79535483
:10161000144B1B8801339AB2124B1A80114B1B8852
:10162000032B1AD1124B5B78DBB29BB21B029AB22E
:101630000F4B9B78DBB29BB213449BB204339AB23C
:10164000094B1A8009E0FFF78DFFFEF741FE054BBD
:1016500000221A80044BC8221A800837BD4680BD7C
:10166000001001406E0C002048040020640C002093
:10167000140D002080B500AF054840F22551FFF75A
:101680007FF80346002B01D0FFF78EFF80BD00BF1F
:1016900000100140024B0146186800F003B800BF7B
:1016A000400400202DE9F04F01F10B05162D83B009
:1016B000064627D935F0070500F1B680A94200F2A9
:1016C000B38000F065FBB5F5FC7F22D2C24FE8087D
:1016D00007EBC003DC689C4200F0C9816368E168E5
:1016E000A56823F00303234430465A68E96042F0BA
:1016F00001028D605A6000F04DFB0834204603B0B3
:10170000BDE8F08F102900F28F8000F041FB10251A
:10171000DCE7680A00F08F80042800F25481A809F1
:1017200038304100AC4F07EB8101CC68A14206D1B3
:101730000CE0002A80F28280E468A14206D063684F
:1017400023F003035A1B0F2AF3DD01380130A249AD
:101750003C6901F1080E744500F07E81636823F056
:1017600003035A1B0F2A00F36481002AC1F814E016
:10177000C1F810E073DAB3F5007F80F03981DB083F
:1017800001EBC3084FEAA30C4A68D8F80890C4F8E4
:101790000890012303FA0CF31343C4F80C804B6048
:1017A000C8F80840C9F80C408210012494409C42BB
:1017B00062D8234206D120F003006400234200F1E6
:1017C0000400FAD007EBC008C4468146DCF80C30B0
:1017D0009C4507D142E1002980F25281DB689C459B
:1017E00000F03C815A6822F00302511B0F29F2DD00
:1017F0001C46D3F80CC054F8088F5A1945F001095B
:1018000041F00105C3F804903046C8F80CC0CCF88C
:1018100008807A613A61C2F80CE0C2F808E05560CD
:10182000515000F0B7FA69E700240C2320463360DA
:1018300003B0BDE8F08F7E213F2073E72344E168C9
:101840005A68A56842F00102E96030468D605A602E
:1018500000F0A0FA0834204603B0BDE8F08F23441E
:1018600030465A6842F001025A6000F093FA083498
:10187000204603B0BDE8F08FBC68636823F003081E
:10188000454504D8C5EB08030F2B00F38C80534B60
:10189000DFF858A11A68DAF8003001332A4404EB63
:1018A000080B00F0508102F580520F3222F47F6263
:1018B00022F00F0211463046019200F06DFAB0F1AD
:1018C000FF3F8146019A00F0F580834500F2EF80EA
:1018D000434B1968CB451144196000F03D81DAF89B
:1018E0000000DFF808E101301BBFCBEB090B5944C6
:1018F000CEF80090196019F0070100F00781C1F1DE
:101900000800C1F58051814408314A44C2F30B02FA
:10191000C2EB010A51463046019300F03DFA431CE8
:10192000019B00F02781C9EB0002524442F0010202
:101930001968C7F808905144BC42C9F804201960DE
:10194000DFF89CA016D0B8F10F0F40F2E280626879
:10195000A8F10C0323F00703E01802F001024FF096
:10196000050E1A430F2B6260C0F804E0C0F808E0CF
:1019700000F204811B4BBC681A68914288BF196051
:10198000194B1A689142626888BF196022F00302FD
:101990009542A2EB050301D80F2B04DC304600F082
:1019A000F9F90024AAE6621943F0010345F00105A4
:1019B00065603046BA60536000F0ECF908342046A8
:1019C00003B0BDE8F08F142869D9542800F297803D
:1019D000280B6E304100A5E64C040020780C002056
:1019E0007C0C0020740C0020700C00205808002093
:1019F0005A0A042A56D9142A00F2A7805B324FEA09
:101A0000420C07EB8C0CDFF8B481DCF80810614560
:101A100000F085804A6822F00302934202D289686E
:101A20008C45F7D1CA687B68E260A1609460CC60A5
:101A3000BAE6631942F0010745F0010565603046DA
:101A40004B610B61C3F80CE0C3F808E05F609A508B
:101A5000083400F09FF951E64B68A5E609F1010949
:101A600019F0030F0CF1080C7FF4B0AE2BE004F179
:101A700008036469A34208BF02303FF468AE2DE654
:101A80001A441C465168DB6854F8085F41F00101B4
:101A900051603046EB609D6000F07CF92EE65B30D3
:101AA00041003FE69A0938324FEA420CA9E7BC42AE
:101AB0003FF40EAFBC68626822F0030268E7D8F812
:101AC0000080984577D110F0030FA8F1080300F1CA
:101AD000FF30F4D17B6823EA04037B6064009C42FE
:101AE0003FF6CAAE002C3FF4C7AE234248467FF40F
:101AF00069AE6400234200F10400FAD062E6B0F55A
:101B0000AA7F18D8E80B773041000BE64FF48051DC
:101B1000FBE60123C9F804304C46002238E7D8F828
:101B2000043092104FF0010C0CFA02F21343C8F883
:101B300004300A4678E740F25453984217D8A80C6C
:101B40007C304100EEE51032B4E6542A1ED81A0B60
:101B50006E324FEA420C54E7CBF30B0000287FF4BF
:101B6000BEAE4244BB6842F001025A6002E7FC216B
:101B70007E20D7E501224FF0000AD9E604F10801E2
:101B8000304600F069F9DAF80010F3E6B2F5AA7F02
:101B900004D8DA0B77324FEA420C32E740F2545164
:101BA0008A4204D89A0C7C324FEA420C29E74FF063
:101BB000FC0C7E2225E77B6890E700BF4C040020E8
:101BC000844641EA000313F003036DD1403A41D348
:101BD00051F8043B40F8043B51F8043B40F8043B07
:101BE00051F8043B40F8043B51F8043B40F8043BF7
:101BF00051F8043B40F8043B51F8043B40F8043BE7
:101C000051F8043B40F8043B51F8043B40F8043BD6
:101C100051F8043B40F8043B51F8043B40F8043BC6
:101C200051F8043B40F8043B51F8043B40F8043BB6
:101C300051F8043B40F8043B51F8043B40F8043BA6
:101C400051F8043B40F8043B51F8043B40F8043B96
:101C5000403ABDD2303211D351F8043B40F8043B36
:101C600051F8043B40F8043B51F8043B40F8043B76
:101C700051F8043B40F8043B103AEDD20C3205D346
:101C800051F8043B40F8043B043AF9D2043208D03E
:101C9000D2071CBF11F8013B00F8013B01D30B88B0
:101CA00003806046704700BF082A13D38B078DD08E
:101CB00010F003038AD0C3F10403D21ADB071CBF60
:101CC00011F8013B00F8013B80D331F8023B20F8CA
:101CD000023B7BE7043AD9D3013A11F8013B00F803
:101CE000013BF9D20B7803704B7843708B7883708B
:101CF0006046704770B4840746D0541E002A41D015
:101D0000CDB2034602E0621EE4B3144603F8015B61
:101D10009A07F8D1032C2ED9CDB245EA05250F2C10
:101D200045EA054519D903F110022646103E0F2E4B
:101D300042F8105C42F80C5C42F8085C42F8045C23
:101D400002F11002F2D8A4F1100222F00F0204F006
:101D50000F041032032C13440DD91E462246043AB8
:101D6000032A46F8045BFAD8221F22F00302043249
:101D7000134404F003042CB1C9B21C4403F8011B42
:101D8000A342FBD170BC704714460346C2E700BFB4
:101D9000704700BF704700BF38B5074C00230546A9
:101DA00008462360FFF7C6F8431C00D038BD2368FF
:101DB000002BFBD02B6038BD54120020F8B5234F08
:101DC0000C460646FFF7E4FFBB685D6825F0030597
:101DD000291B01F6EF7121F47F6121F00F01A1F5BC
:101DE0008054B4F5805F07DB30460021FFF7D4FF55
:101DF000BB682B44984204D03046FFF7CBFF00204D
:101E0000F8BD30466142FFF7C7FF01300DD0104BDF
:101E1000BA6819682D1B45F001053046091B55604D
:101E20001960FFF7B7FF0120F8BD30460021FFF72A
:101E3000B3FFBA68831A0F2BDEDD064C0449246811
:101E400043F00103001B53600860D5E74C040020F9
:101E50007C0C00205808002000294ED02DE9F041CC
:101E60000C468046FFF794FF54F8047C624927F043
:101E70000102A4F10805AB188E6858689E4220F054
:101E800003005AD0FE0758600BD454F8087CED1BB1
:101E900001F1080EAC6874453A4467D0EF68E7601A
:101EA000BC601C186468E4070CD4544F9C68BC42A6
:101EB00002447CD0D868E06042F0010384606B602B
:101EC000AA5003E042F001036B60AA50B2F5007F14
:101ED00014D2D20801EBC20348689F68AF60921029
:101EE000012404FA02F21043EB6048609D60FD603B
:101EF0004046BDE8F041FFF74DBF7047530A042B41
:101F000047D8930903F13804600001EB80003A4997
:101F10008368834243D0596821F00301914202D97A
:101F20009B689842F7D1DA68EA60AB6040469560FA
:101F3000DD60BDE8F041FFF72DBFFF07024407D485
:101F400054F8083CED1A1A44A868EB68C36098601E
:101F50002B4B1B6842F001009A4268608D60C7D32A
:101F6000284B40461968FFF729FFC1E7191849684F
:101F7000C90709D4D9689B68024442F00100D960BE
:101F80008B606860AA50B3E742F001036B60AA500F
:101F9000AEE7142B14D803F15B046000B5E74A6880
:101FA000A4100120A04002434A601A46BCE742F058
:101FB00001034D610D61EC60AC606B60AA5097E766
:101FC000542B04D8130B03F16E0460009DE7B3F5A6
:101FD000AA7F04D8D30B03F17704600095E740F2A1
:101FE0005450834204D8930C03F17C0460008CE7C6
:101FF000FC207E2489E700BF4C040020540400200C
:1020000054080020780C002001020304050607088C
:0820100009000000FFFEEF00D3
:1020180001000000000000000102030401020304A3
:10202800060708090000000000000000000000008A
:102038000100000000000000000000000000000097
:102048000000000000000000000000000000000088
:102058000000000000000000000000000000000078
:102068000000000000000000000000000000000068
:102078000000000000000000000000000000000058
:102458001800002000000000C80000000000000074
:10246800000000004C0400204C040020540400200C
:10247800540400205C0400205C0400206404002054
:10248800640400206C0400206C0400207404002004
:10249800740400207C0400207C04002084040020B4
:1024A800840400208C0400208C0400209404002064
:1024B800940400209C0400209C040020A404002014
:1024C800A4040020AC040020AC040020B4040020C4
:1024D800B4040020BC040020BC040020C404002074
:1024E800C4040020CC040020CC040020D404002024
:1024F800D4040020DC040020DC040020E4040020D4
:10250800E4040020EC040020EC040020F404002083
:10251800F4040020FC040020FC0400200405002032
:10252800040500200C0500200C05002014050020DF
:10253800140500201C0500201C050020240500208F
:10254800240500202C0500202C050020340500203F
:10255800340500203C0500203C05002044050020EF
:10256800440500204C0500204C050020540500209F
:10257800540500205C0500205C050020640500204F
:10258800640500206C0500206C05002074050020FF
:10259800740500207C0500207C05002084050020AF
:1025A800840500208C0500208C050020940500205F
:1025B800940500209C0500209C050020A40500200F
:1025C800A4050020AC050020AC050020B4050020BF
:1025D800B4050020BC050020BC050020C40500206F
:1025E800C4050020CC050020CC050020D40500201F
:1025F800D4050020DC050020DC050020E4050020CF
:10260800E4050020EC050020EC050020F40500207E
:10261800F4050020FC050020FC050020040600202D
:10262800040600200C0600200C06002014060020DA
:10263800140600201C0600201C060020240600208A
:10264800240600202C0600202C060020340600203A
:10265800340600203C0600203C06002044060020EA
:10266800440600204C0600204C060020540600209A
:10267800540600205C0600205C060020640600204A
:10268800640600206C0600206C06002074060020FA
:10269800740600207C0600207C06002084060020AA
:1026A800840600208C0600208C060020940600205A
:1026B800940600209C0600209C060020A40600200A
:1026C800A4060020AC060020AC060020B4060020BA
:1026D800B4060020BC060020BC060020C40600206A
:1026E800C4060020CC060020CC060020D40600201A
:1026F800D4060020DC060020DC060020E4060020CA
:10270800E4060020EC060020EC060020F406002079
:10271800F4060020FC060020FC0600200407002028
:10272800040700200C0700200C07002014070020D5
:10273800140700201C0700201C0700202407002085
:10274800240700202C0700202C0700203407002035
:10275800340700203C0700203C07002044070020E5
:10276800440700204C0700204C0700205407002095
:10277800540700205C0700205C0700206407002045
:10278800640700206C0700206C07002074070020F5
:10279800740700207C0700207C07002084070020A5
:1027A800840700208C0700208C0700209407002055
:1027B800940700209C0700209C070020A407002005
:1027C800A4070020AC070020AC070020B4070020B5
:1027D800B4070020BC070020BC070020C407002065
:1027E800C4070020CC070020CC070020D407002015
:1027F800D4070020DC070020DC070020E4070020C5
:10280800E4070020EC070020EC070020F407002074
:10281800F4070020FC070020FC0700200408002023
:10282800040800200C0800200C08002014080020D0
:10283800140800201C0800201C0800202408002080
:10284800240800202C0800202C0800203408002030
:10285800340800203C0800203C08002044080020E0
:0C2868004408002000000200FFFFFFFFFA
:0400000508000000EF
:00000001FF
